:1000000042C268C350C24FC24EC24DC24CC24BC264
:100010004AC247C348C247C246C245C244C243C29D
:1000200042C241C240C20000000000000080E0F077
:100030007038181818183870F0E0800000000000C0
:1000400000000000000000F0FFFF0F0100000000B2
:1000500000000000010FFFFFF000000000000000A2
:100060000000001FFFFFE000000000000000000093
:1000700000E0FFFF1F000000000000000000000083
:1000800001030F1F1C3820303020381C1F0F0301C4
:1000900000000000000000000000000000000080E0
:1000A0008080C0C0F8F8F8000000000000000000E8
:1000B000000000000000000000000001010101013B
:1000C000FFFFFF0000000000000000000000000033
:1000D000000000000000000000000000FFFFFF0023
:1000E0000000000000000000000000000000000010
:1000F00000000000000000003F3F3F000000000043
:1001000000000000000000000000000080C0E0F0DF
:10011000703818181818183870F0E0C08000000007
:1001200000000000000000000F0F0F0000000000A2
:1001300000000080C0E0FF7F1F0000000000000002
:100140000000000000C0E0F070381C0C060603033D
:100150000100000000000000000000000000003C62
:100160003F3F23303030303030303030303030307E
:1001700030000000000000000000000080C0E0F03F
:100180001838080808083818F0E0C080000000009F
:10019000000000000000000007070700000080804A
:1001A0008080C0C0F07F3F1F000000000000000002
:1001B000000000E0E0E00000000001010101010397
:1001C000070FFEFCF8000000000000000000000126
:1001D000070F1E1C30382020202038301C1E0F072F
:1001E000010000000000000000000000000000000E
:1001F0000000000080E0F0F8F8F8000000000000C7
:10020000000000000000000000000080E0F07C3EE4
:100210000F0703FFFFFF00000000000000000000C8
:10022000000000E0F0FC9FCFC3C1C0C0C0C080FF91
:10023000FFFF80C0C0C00000000000000000000000
:1002400000000000000000000000003F3F3F0000F1
:1002500000000000000000000000000000C0F8F8EE
:10026000181818181818181818181818000000006E
:100270000000000000000000F0FFFFE77070303069
:1002800030307070E0C0C0000000000000000000CE
:10029000000000000101010000000000000000005B
:1002A0000003FFFFFC00000000000000000000074A
:1002B0000F1F1C3038202020202038181C1F0F034F
:1002C0000000000000000000000000000080E0F0DE
:1002D0007038381818183838F0F0E0800000000046
:1002E00000000000000000F0FEFF8FC1C0E0606071
:1002F000606060E0C0C383030000000000000000F5
:10030000000000FFFFFF07010000000000000000E8
:100310000103FFFFFC0000000000000000000000DF
:10032000030F1F1C3038202020203030181E0F07EC
:10033000010000000000000000000000181818185C
:100340001818181818181898C8F8F8781800000025
:10035000000000000000000000000000000000C0DD
:10036000F0FC7F1F070100000000000000000000FB
:100370000000000000000000C0F8FF7F070100003F
:10038000000000000000000000000000000000006D
:100390000000003E3F3F070000000000000000009A
:1003A00000000000000000000000000080C0E0F03D
:1003B000703818181818183870F0E0C08000000065
:1003C00000000000000000001F3F7FF0E0C08080C0
:1003D000808080C0E0F07F3F0F0000000000000040
:1003E000000000F0FCFE0F070303010101010303FD
:1003F000070FFFFEFC0000000000000000000001ED
:10040000070F1E1C3038202020203830181C0F0702
:10041000010000000000000000000000C0E0F070DB
:10042000383818181818383870F0E08000000000CC
:10043000000000000000007FFFFF810000000000BE
:100440000000000000C1DDFFFE0000000000000011
:1004500000000000010307070E0C0C0C0C0C0E062C
:1004600007E3FBFF1F000000000000000000000089
:10047000070F1F1C382020202020381C1E0F0701CA
:1004800000000000000011241FBECFE5D4E0DEBF55
:10049000CDBF20E0A0E6B0E001C01D92A037B207BA
:1004A000E1F790D109C2ACCD9C01EAE0F0E0BF01D8
:1004B000F0D190936B0080936A00CB01BF01E9D12A
:1004C0009093690080936800C90164E670E0E1D10F
:1004D000CB01BF01DED190936D0080936C00C90108
:1004E00068EE73E0D6D170936F0060936E0008954C
:1004F00094EA96BF06B607FEFDCF98E793B994E855
:1005000096BF06B607FEFDCF13B894E896BF06B6B1
:1005100007FEFDCF83B984E886BF06B607FEFDCF90
:1005200084E986BF089594EA96BF06B607FEFDCF1C
:1005300098E793B994E896BF06B607FEFDCF90E41E
:1005400093B994E896BF06B607FEFDCF83B984E859
:1005500086BF06B607FEFDCF84E986BF0895CF9219
:10056000DF92EF92FF920F931F93CF93DF939C0143
:10057000992314F4215F3F4F35952795359527959D
:1005800035952795359527958F709078992324F484
:100590000197806F9F6F0196E82E0F2EF0EBFF2ED4
:1005A000F02DF60E80E7849FE001859FD00D112489
:1005B000CA5DDF4F0F2EF4EBCF2EF02DC60E0F2E9F
:1005C000F8E1DF2EF02DD20E8F2D92DF8E2D90DFF1
:1005D0008D2D8EDF8E01045E1F4FFE018491A3DFFF
:1005E0002196C017D107C9F7F394E801FC10ECCFAE
:1005F000DF91CF911F910F91FF90EF90DF90CF90FF
:1006000008951F93CF93DF9310EB812F71DF80E06C
:100610006FDF80E16DDFC0E8D0E080E084DF21970C
:10062000E1F71F5F143B89F7DF91CF911F91089588
:100630008EEA5EDF80E25CDF80E15ADF80EB58DF2C
:1006400088EC56DF80E054DF80E152DF80E450DF49
:1006500081E84EDF8FEF4CDF81EA4ADF86EA48DF30
:1006600088EA46DF8FE144DF84EA42DF83ED40DF42
:1006700080E03EDF85ED3CDF80EF3ADF89ED38DF5B
:1006800082E236DF8AED34DF82E032DF8BED30DF6D
:1006900080E22EDF8DE82CDF84E12ADF8FEA28DF7D
:1006A00008951F920F920FB60F9211248F939F936C
:1006B0008CE882BF809166009091670001969093CC
:1006C0006700809366009F918F910F900FBE0F90EF
:1006D0001F9018951F920F920FB60F9211242F930F
:1006E0003F934F935F936F937F938F939F93AF93BA
:1006F000BF93EF93FF938091640090916500892BE5
:1007000091F4109267001092660081E089BF82E048
:1007100083BF9CE892BF85BF81E090E09093650025
:10072000809364003EC019BE109265001092640070
:100730008091660090916700823C9140B8F42091CE
:100740006000309161008091660090916700820F97
:10075000931F90936100809360008091620090915C
:100760006300019690936300809362008091620021
:10077000909163000A9799F48091600090916100D4
:10078000609162007091630070D0CB018DDE109299
:10079000630010926200109261001092600083E08A
:1007A00085BFFF91EF91BF91AF919F918F917F9105
:1007B0006F915F914F913F912F910F900FBE0F90CE
:1007C0001F9018958FEF84BB81E081BB8CE080B9CE
:1007D00011B880E48BBF83E085BF80E88FBF28DF3E
:1007E0002FEF80E792E0215080409040E1F700C079
:1007F000000007DFC1E0C2BB25E32A95F1F7000046
:1008000012BA8FE39CE90197F1F700C00000409114
:100810006E0050916F0060E070E080E090E09FDE3D
:1008200040916C0050916D0060E070E080E290E0DB
:1008300096DE409168005091690060E070E080E4CD
:1008400090E08DDE40916A0050916B0060E070E0B6
:1008500080E690E084DE9FEF2DEE82E09150204014
:100860008040E1F700C00000C6CFAA1BBB1B51E1CE
:1008700007C0AA1FBB1FA617B70710F0A61BB70B10
:10088000881F991F5A95A9F780959095BC01CD01B5
:10089000089597FB072E16F4009406D077FD08D034
:1008A000E4DF07FC05D03EF4909581959F4F0895B5
:0C08B000709561957F4F0895F894FFCF7C
:00000001FF
