:1000000042C396C450C34FC34EC34DC34CC34BC32E
:100010004AC375C448C347C346C345C344C343C367
:1000200042C341C340C30000000000000080E0F074
:100030007038181818183870F0E0800000000000C0
:1000400000000000000000F0FFFF0F0100000000B2
:1000500000000000010FFFFFF000000000000000A2
:100060000000001FFFFFE000000000000000000093
:1000700000E0FFFF1F000000000000000000000083
:1000800001030F1F1C3820303020381C1F0F0301C4
:1000900000000000000000000000000000000080E0
:1000A0008080C0C0F8F8F8000000000000000000E8
:1000B000000000000000000000000001010101013B
:1000C000FFFFFF0000000000000000000000000033
:1000D000000000000000000000000000FFFFFF0023
:1000E0000000000000000000000000000000000010
:1000F00000000000000000003F3F3F000000000043
:1001000000000000000000000000000080C0E0F0DF
:10011000703818181818183870F0E0C08000000007
:1001200000000000000000000F0F0F0000000000A2
:1001300000000080C0E0FF7F1F0000000000000002
:100140000000000000C0E0F070381C0C060603033D
:100150000100000000000000000000000000003C62
:100160003F3F23303030303030303030303030307E
:1001700030000000000000000000000080C0E0F03F
:100180001838080808083818F0E0C080000000009F
:10019000000000000000000007070700000080804A
:1001A0008080C0C0F07F3F1F000000000000000002
:1001B000000000E0E0E00000000001010101010397
:1001C000070FFEFCF8000000000000000000000126
:1001D000070F1E1C30382020202038301C1E0F072F
:1001E000010000000000000000000000000000000E
:1001F0000000000080E0F0F8F8F8000000000000C7
:10020000000000000000000000000080E0F07C3EE4
:100210000F0703FFFFFF00000000000000000000C8
:10022000000000E0F0FC9FCFC3C1C0C0C0C080FF91
:10023000FFFF80C0C0C00000000000000000000000
:1002400000000000000000000000003F3F3F0000F1
:1002500000000000000000000000000000C0F8F8EE
:10026000181818181818181818181818000000006E
:100270000000000000000000F0FFFFE77070303069
:1002800030307070E0C0C0000000000000000000CE
:10029000000000000101010000000000000000005B
:1002A0000003FFFFFC00000000000000000000074A
:1002B0000F1F1C3038202020202038181C1F0F034F
:1002C0000000000000000000000000000080E0F0DE
:1002D0007038381818183838F0F0E0800000000046
:1002E00000000000000000F0FEFF8FC1C0E0606071
:1002F000606060E0C0C383030000000000000000F5
:10030000000000FFFFFF07010000000000000000E8
:100310000103FFFFFC0000000000000000000000DF
:10032000030F1F1C3038202020203030181E0F07EC
:10033000010000000000000000000000181818185C
:100340001818181818181898C8F8F8781800000025
:10035000000000000000000000000000000000C0DD
:10036000F0FC7F1F070100000000000000000000FB
:100370000000000000000000C0F8FF7F070100003F
:10038000000000000000000000000000000000006D
:100390000000003E3F3F070000000000000000009A
:1003A00000000000000000000000000080C0E0F03D
:1003B000703818181818183870F0E0C08000000065
:1003C00000000000000000001F3F7FF0E0C08080C0
:1003D000808080C0E0F07F3F0F0000000000000040
:1003E000000000F0FCFE0F070303010101010303FD
:1003F000070FFFFEFC0000000000000000000001ED
:10040000070F1E1C3038202020203830181C0F0702
:10041000010000000000000000000000C0E0F070DB
:10042000383818181818383870F0E08000000000CC
:10043000000000000000007FFFFF810000000000BE
:100440000000000000C1DDFFFE0000000000000011
:1004500000000000010307070E0C0C0C0C0C0E062C
:1004600007E3FBFF1F000000000000000000000089
:10047000070F1F1C382020202020381C1E0F0701CA
:10048000000000000000000000000000000000006C
:10049000040404FCFC040404040C18F0F0C0000480
:1004A0000404FCFC0400002078CC848484840C1CAC
:1004B0001C2000180C0C0404FCFCFC0404041C1C90
:1004C000300000000000E03C3C3CF8C000000000B0
:1004D000000404FC1C70E0E0800004FCFCFC040050
:1004E000E0E0F80C040404040C1C3838000404FC9C
:1004F000FC848484E4E40C1C300000000000000054
:1005000000000000000000000000000000000000EB
:100510002020203F3F2020202030180F0F030020F4
:1005200020203F2F20000018302021216161233F2F
:100530003F0C0000000000202F3F3F202000000063
:1005400000002038382F23020202232F3E3E3020A5
:100550000020203F2020000003070C3F3F3F000009
:100560000F0F1F382060606020301C1C0420203FCB
:100570003F2121212727203818000000000000001B
:10058000000000000000000000000000040404FC63
:100590003CE0E08000000000E03CFCFCFC040004C7
:1005A000FCFCFC84848484CC1C38000000000080A7
:1005B00080F01C7CF0F080000000000070F8CCCCD3
:1005C00084840C1C1C3800040404FCFC040400009B
:1005D000040404FC0404040404FC6C0404048CF807
:1005E000F8F8000004FCFCFC84848484CC0C380003
:1005F000000004FCFCFC0404048C8CF87000000077
:100600000000000000000000000000006060603F8B
:100610006001010F7C3C070761603F3F3F60006065
:100620003F3F3F61616161273038080860603C6787
:100630006722020263636F3C6060600038302020F4
:1006400061616137371E000000001F3F202060609D
:100650006030301F00006060603F6D6161030F38E3
:1006600030306000603F3F3F616161612730380892
:100670000800603F3F3F61030F1C1C3060600000BA
:1006800000000000000011241FBECFE5D4E0DEBF53
:10069000CDBF20E0A0E6B0E001C01D92A037B207B8
:1006A000E1F7BED132C2ACCC94EA96BF06B607FEE3
:1006B000FDCF98E793B994E896BF06B607FEFDCF45
:1006C00013B894E896BF06B607FEFDCF83B984E859
:1006D00086BF06B607FEFDCF84E986BF089594EA7B
:1006E00096BF06B607FEFDCF98E793B994E896BF8C
:1006F00006B607FEFDCF90E493B994E896BF06B620
:1007000007FEFDCF83B984E886BF06B607FEFDCF9E
:1007100084E986BF0895BF92CF92DF92EF92FF9255
:100720000F931F93CF93DF936C01C0E0D0E00F2EA7
:10073000F0EBBF2EF02D8B2DB7DF80E0B5DF80E131
:10074000B3DF7E0180E8E80EF11C8E010F5F1F4FC2
:10075000F601EC0FFD1F8491C2DFE801E016F106FF
:10076000A1F7B394E701E11482E0F80621F7DF91E5
:10077000CF911F910F91FF90EF90DF90CF90BF909E
:100780000895DF92EF92FF920F931F93CF93DF9321
:100790009C01992314F4215F3F4F3595279535959A
:1007A000279535952795359527958F7090789923BE
:1007B00024F40197806F9F6F0196E82E80E7869F53
:1007C000E001879FD00D1124CA5DDF4F0F2EF0EBA3
:1007D000FF2EF02D6894DD24D4F8D20E8F2D64DF27
:1007E0008E2D62DF8D2D60DF8E01045E1F4FFE01B6
:1007F000849175DF2196C017D107C9F7F394E801FA
:10080000F4EBFF12EBCFDF91CF911F910F91FF908F
:10081000EF90DF9008951F93CF93DF9310EB812F1C
:1008200043DF80E041DF80E13FDFC0E8D0E080E0EF
:1008300056DF2197E1F71F5F143B89F7DF91CF91D6
:100840001F9108958EEA30DF80E22EDF80E12CDFF9
:1008500080EB2ADF88EC28DF80E026DF80E124DFE0
:1008600080E422DF81E820DF8FEF1EDF81EA1CDFDA
:1008700086EA1ADF88EA18DF8FE116DF84EA14DFE0
:1008800083ED12DF80E010DF85ED0EDF80EF0CDFFF
:1008900089ED0ADF82E208DF8AED06DF82E004DF0D
:1008A0008BED02DF80E200DF8DE8FEDE84E1FCDE1E
:1008B0008FEAFADE08959C01EAE0F0E0BF0112D170
:1008C00090936B0080936A00CB01BF010BD1909392
:1008D000690080936800C90164E670E003D1CB0130
:1008E000BF0100D190936D0080936C00C90168EE48
:1008F00073E0F8D070936F0060936E0008951F92BC
:100900000F920FB60F9211248F939F938CE882BFA2
:1009100080916600909167000196909367008093A4
:1009200066009F918F910F900FBE0F901F901895AA
:100930001F920F920FB60F9211242F933F934F9354
:100940005F936F937F938F939F93AF93BF93EF9337
:10095000FF938091640090916500892B91F410922F
:1009600067001092660081E089BF82E083BF9CE847
:1009700092BF85BF81E090E0909365008093640012
:100980003EC019BE1092650010926400809166000E
:1009900090916700823C9140B8F4209160003091C2
:1009A00061008091660090916700820F931F909381
:1009B00061008093600080916200909163000196D5
:1009C0009093630080936200809162009091630035
:1009D0000A9799F4809160009091610060916200A3
:1009E000709163006BD0CB0166DF109263001092B0
:1009F0006200109261001092600083E085BFFF9159
:100A0000EF91BF91AF919F918F917F916F915F9186
:100A10004F913F912F910F900FBE0F901F901895FF
:100A20008FEF84BB81E081BB8CE080B911B880E49A
:100A30008BBF83E085BF80E88FBF04DF2FEF80E7A7
:100A400092E0215080409040E1F700C0000086E82D
:100A500094E061DE2FEF83ED90E3215080409040E1
:100A6000E1F700C00000D7DEC1E0C2BB25E32A9554
:100A7000F1F7000012BA60916E0070916F0080E093
:100A800090E07FDE60916C0070916D008CE190E0F1
:100A900078DE609168007091690088E390E071DE13
:100AA00060916A0070916B0084E590E06ADE8FE3EC
:100AB0009CE90197F1F700C00000D7CFAA1BBB1B30
:100AC00051E107C0AA1FBB1FA617B70710F0A61B4E
:100AD000B70B881F991F5A95A9F780959095BC016F
:100AE000CD01089597FB072E16F4009406D077FDEC
:100AF00008D0E4DF07FC05D03EF4909581959F4F28
:0E0B00000895709561957F4F0895F894FFCF8A
:00000001FF
