:1000000012C219C218C217C216C215C214C213C234
:1000100012C211C210C20FC20EC20DC20CC20BC25C
:100020000AC209C208C2F0F83C0E07070303030323
:100030000303030303030303030303030303030390
:100040000303030303030303030303030303030380
:100050000303030303030303030303030303030370
:100060000303030303030303030303030303030360
:100070000303030303030303030303030303030350
:100080000303030303030303030303030303030340
:100090000303030303030303030303030303030330
:1000A00003070E1EFCF8FFFF000000000000000028
:1000B0000000000000000000000000000000000040
:1000C0000000000000000000000000000000000030
:1000D0000000000000000000000000000000000020
:1000E0000000000000000000000000000000000010
:1000F0000000000000000000000080C0E070303010
:1001000030303060E0F000003030F0F0E07030105F
:100110001030F0E0C0603030103030E0C00000003F
:1001200000000000FFFFFFFF0000000000000000D3
:1001300000000000000000000000000000000000BF
:1001400000000000000000000000000000000000AF
:10015000000000000000000000000000000000009F
:10016000000000000000000000000000000000008F
:100170000000000000000000000C3FFFE0800000D5
:1001800000000080C1C140000000FFFFFF00000030
:1001900000007EFFFF000000000000FFFF000000E5
:1001A00000000000FFFF0F3F7C70E0C0C0C0C0C077
:1001B000C0C0C0C0C0C0C0C0C0C0C0C0C0C0C0C03F
:1001C000C0C0C0C0C0C0C0C0C0C0C0C0C0C0C0C02F
:1001D000C0C0C0C0C0C0C0C0C0C0C0C0C0C0C0C01F
:1001E000C0C0C0C0C0C0C0C0C0C0C0C0C0C0C0C00F
:1001F000C0C0C0C0C0C0C0C0C0C0C0C0C1C1C1C3F9
:10020000C3C3C3C1C1C0C0C0C1C1C1C1C1C1C1C0DC
:10021000C1C1C1C1C1C1C1C0C0C1C1C1C1C1C1C0D1
:10022000C0C0E0703F1F00000000000000000000A0
:10023000040404FCFC040404040C18F0F0C00004E2
:100240000404FCFC0400002078CC848484840C1C0E
:100250001C2000180C0C0404FCFCFC0404041C1CF2
:10026000300000000000E03C3C3CF8C00000000012
:10027000000404FC1C70E0E0800004FCFCFC0400B2
:10028000E0E0F80C040404040C1C3838000404FCFE
:10029000FC848484E4E40C1C3000000000000000B6
:1002A000000000000000000000000000000000004E
:1002B0002020203F3F2020202030180F0F03002057
:1002C00020203F2F20000018302021216161233F92
:1002D0003F0C0000000000202F3F3F2020000000C6
:1002E00000002038382F23020202232F3E3E302008
:1002F0000020203F2020000003070C3F3F3F00006C
:100300000F0F1F382060606020301C1C0420203F2D
:100310003F2121212727203818000000000000007D
:10032000000000000000000000000000040404FCC5
:100330003CE0E08000000000E03CFCFCFC04000429
:10034000FCFCFC84848484CC1C3800000000008009
:1003500080F01C7CF0F080000000000070F8CCCC35
:1003600084840C1C1C3800040404FCFC04040000FD
:10037000040404FC0404040404FC6C0404048CF869
:10038000F8F8000004FCFCFC84848484CC0C380065
:10039000000004FCFCFC0404048C8CF870000000D9
:1003A0000000000000000000000000006060603FEE
:1003B0006001010F7C3C070761603F3F3F600060C8
:1003C0003F3F3F61616161273038080860603C67EA
:1003D0006722020263636F3C606060003830202057
:1003E00061616137371E000000001F3F2020606000
:1003F0006030301F00006060603F6D6161030F3846
:1004000030306000603F3F3F6161616127303808F4
:100410000800603F3F3F61030F1C1C30606000001C
:1004200000000000000011241FBECFE5D4E0DEBFB5
:10043000CDBFA8D0D2C0E4CD94EA96BF06B607FEE1
:10044000FDCF98E793B994E896BF06B607FEFDCFB7
:1004500013B894E896BF06B607FEFDCF83B984E8CB
:1004600086BF06B607FEFDCF84E986BF089594EAED
:1004700096BF06B607FEFDCF98E793B994E896BFFE
:1004800006B607FEFDCF90E493B994E896BF06B692
:1004900007FEFDCF83B984E886BF06B607FEFDCF11
:1004A00084E986BF0895BF92CF92DF92EF92FF92C8
:1004B0000F931F93CF93DF936C01C0E0D0E00F2E1A
:1004C000F0EBBF2EF02D8B2DB7DF80E0B5DF80E1A4
:1004D000B3DF7E0180E8E80EF11C8E010F5F1F4F35
:1004E000F601EC0FFD1F8491C2DFE801E016F10672
:1004F000A1F7B394E701E11482E0F80621F7DF9158
:10050000CF911F910F91FF90EF90DF90CF90BF9010
:1005100008958EEA91DF80E28FDF80E18DDF80EB4E
:100520008BDF88EC89DF80E087DF80E185DF80E496
:1005300083DF81E881DF8FEF7FDF81EA7DDF86EA7D
:100540007BDF88EA79DF8FE177DF84EA75DF83ED8F
:1005500073DF80E071DF85ED6FDF80EF6DDF89EDA8
:100560006BDF82E269DF8AED67DF82E065DF8BEDBA
:1005700063DF80E261DF8DE85FDF84E15DDF8FEACA
:100580005BDF08958FEF84BB8CE080B911B8C1DFC9
:100590002FEF80E792E0215080409040E1F700C0CB
:1005A000000086E292E07FDF2FEF83ED90E32150A1
:1005B00080409040E1F700C0000086E290E073DFE9
:1005C00086E292E070DF2FEF80E792E021508040DA
:0E05D0009040E1F700C00000F3CFF894FFCF99
:00000001FF
