:1000000076C07DC07CC07BC07AC079C078C077C024
:1000100076C075C074C073C072C071C070C06FC04C
:100020006EC06DC06CC000C0E0F0F0381888F8F009
:100030000F1F1F13180C0603010000000080C0E012
:10004000F0F8381802121B1D1F0F030000000000FB
:10005000E0F0F03888F8F87010180C1E1E1B191804
:1000600008000000007070B888C878780E1E16105E
:10007000181C1F0F0700000000C0E0783898C84027
:100080000406131F1C1E0F050400000000C0F0B87A
:10009000989818080C1C1410181C1F0F070000005B
:1000A000C0E0F0F098883838000F1F1F131D1F0F95
:1000B0000700000000203898D0F030180000383ECB
:1000C0003F070100000000000070F0F8C8F8783029
:1000D0000E1F1F1111111F0F07000000E0F0F8386C
:1000E000C8F8F8F00C1C1C11190D0F07030011249F
:1000F0001FBECFE5D4E0DEBFCDBFDDD014C180CFC1
:1001000094EA96BF06B607FEFDCF98E793B994E848
:1001100096BF06B607FEFDCF13B894E896BF06B6A5
:1001200007FEFDCF83B984E886BF06B607FEFDCF84
:1001300084E986BF089594EA96BF06B607FEFDCF10
:1001400098E793B994E896BF06B607FEFDCF90E412
:1001500093B994E896BF06B607FEFDCF83B984E84D
:1001600086BF06B607FEFDCF84E986BF0895CF920D
:10017000DF92EF92FF920F931F93CF93DF939C0137
:10018000992314F4215F3F4F359527953595279591
:10019000359527953595279587709078992324F480
:1001A0000197886F9F6F0196F82E0F2EF0EBDF2ED0
:1001B000F02DD60E84E1849FE001859FD00D11249F
:1001C000CA5DDF4F0F2EF2EBCF2EF02DC60E0F2E95
:1001D000F8E1EF2EF02DE20E8D2D92DF8F2D90DFC6
:1001E0008E2D8EDF87EA8CDF8E01065F1F4FFE01AA
:1001F0008491A1DF2196C017D107C9F7D394E801F4
:10020000DC10EACFDF91CF911F910F91FF90EF901B
:10021000DF90CF9008951F93CF93DF9310EB812F42
:100220006FDF80E06DDF80E16BDFC0E8D0E080E071
:1002300082DF2197E1F71F5F143B89F7DF91CF91B0
:100240001F9108958EEA5CDF80E25ADF80E158DF7B
:1002500080EB56DF88EC54DF80E052DF80E150DF36
:1002600080E44EDF81E84CDF8FEF4ADF81EA48DF30
:1002700086EA46DF88EA44DF8FE142DF84EA40DF36
:1002800083ED3EDF80E03CDF85ED3ADF80EF38DF55
:1002900089ED36DF82E234DF8AED32DF82E030DF63
:1002A0008BED2EDF80E22CDF8DE82ADF84E128DF72
:1002B0008FEA26DF08958FEF84BB8CE080B911B8F8
:1002C000C1DF2FEF80E792E0215080409040E1F7BE
:1002D00000C00000A0DFC0E0D0E0AE0161E070E04F
:1002E00080E290E044DFAE0161E070E080E390E006
:1002F0003EDFAE0161E070E080E490E038DFAE0107
:1003000061E070E080E590E032DF2FEF83ED90E375
:10031000215080409040E1F700C000002196CA3093
:0A032000D105D9F6D8CFF894FFCF2D
:00000001FF
