:04000000DBC419C67E
:10000400FDCFFCCFFBCFFACFF9CFF8CFF7CF03C6A4
:10001400F5CFF4CFF3CFF2CFF1CFF0CFEFCFEECFD8
:10002400EDCF000000000000000000000000000010
:10003400000000000000040004000400FC00FC00B8
:1000440004000400040004000C001800F000F00098
:10005400C0000000040004000400FC00FC000400D4
:100064000000000020007800CC008400840084009C
:1000740084000C001C001C002000000018000C0070
:100084000C0004000400FC00FC00FC00040004005C
:1000940004001C001C0030000000000000000000F0
:1000A4000000E0003C003C003C00F800C000000000
:1000B400000000000000000004000400FC001C001C
:1000C4007000E000E000800000000400FC00FC0080
:1000D400FC0004000000E000E000F8000C00040054
:1000E4000400040004000C001C0038003800000068
:1000F40004000400FC00FC00840084008400E4008C
:10010400E4000C001C0030000000000000000000AF
:1001140000000000000000000000000000000000DB
:1001240000000000000000000000000000000000CB
:100134000000000000002000200020003F003F00DD
:100144002000200020002000300018000F000F00C5
:10015400030000002000200020003F002F002000AA
:100164000000000018003000200021002100610080
:10017400610023003F003F000C000000000000006D
:100184000000000020002F003F003F00200020005E
:1001940000000000000000000000200038003800CB
:1001A4002F00230002000200020023002F003E0063
:1001B4003E00300020000000200020003F0020000E
:1001C400200000000000030007000C003F003F0077
:1001D4003F00000000000F000F001F003800200047
:1001E400600060006000200030001C001C0004005F
:1001F400200020003F003F002100210021002700B3
:100204002700200038001800000000000000000053
:1002140000000000000000000000000000000000DA
:1002240000000000000000000000000000000400C6
:1002340004000400FC003C00E000E000800000003A
:10024400000000000000E0003C00FC00FC00FC009A
:10025400040000000400FC00FC00FC008400840096
:1002640084008400CC001C00380000000000000062
:100274000000000080008000F0001C007C00F00002
:10028400F00080000000000000000000000070008A
:10029400F800CC00CC00840084000C001C001C007E
:1002A40038000000040004000400FC00FC0004000A
:1002B400040000000000040004000400FC0004002A
:1002C4000400040004000400FC006C0004000400AA
:1002D40004008C00F800F800F8000000000004009E
:1002E400FC00FC00FC008400840084008400CC003A
:1002F4000C0038000000000000000400FC00FC00BA
:10030400FC000400040004008C008C00F800700061
:1003140000000000000000000000000000000000D9
:100324000000000000000000000000000000600069
:10033400600060003F006000010001000F007C00CD
:100344003C0007000700610060003F003F003F00E1
:100354006000000060003F003F003F00610061005A
:1003640061006100270030003800080008006000C8
:1003740060003C0067006700220002000200630086
:1003840063006F003C006000600060000000380003
:100394003000200020006100610061003700370058
:1003A4001E0000000000000000001F003F002000AD
:1003B4002000600060006000300030001F0000007A
:1003C40000006000600060003F006D00610061009B
:1003D40003000F00380030003000600000006000AF
:1003E4003F003F003F0061006100610061002700A1
:1003F4003000380008000800000060003F003F00A3
:100404003F00610003000F001C001C00300060006E
:100414006000000000000000000000000000000078
:10042400000000C0E0F0F0381888F8F00F1F1F1328
:10043400180C0603010000000080C0E0F0F8381832
:1004440002121B1D1F0F030000000000E0F0F03833
:1004540088F8F87010180C1E1E1B191808000000EC
:10046400007070B888C878780E1E1610181C1F0FFC
:100474000700000000C0E0783898C8400406131F45
:100484001C1E0F050400000000C0F0B8989818085E
:100494000C1C1410181C1F0F07000000C0E0F0F023
:1004A40098883838000F1F1F131D1F0F0700000006
:1004B40000203898D0F030180000383E3F07010083
:1004C400000000000070F0F8C8F878300E1F1F110B
:1004D40011111F0F07000000E0F0F838C8F8F8F019
:1004E4000C1C1C11190D0F070300000080C06020B4
:1004F4002020200000000F1F302020202000C0C03A
:10050400404080804040C0803F3F00003F3F0000AB
:100514003F3F0000000000000080E0F07038181831
:1005240018183870F0E0800000000000000000009F
:10053400000000F0FFFF0F010000000000000000B9
:10054400010FFFFFF0000000000000000000001F8A
:10055400FFFFE000000000000000000000E0FFFFDB
:100564001F000000000000000000000001030F1F36
:100574001C3820303020381C1F0F030100000000FD
:100584000000000000000000000000808080C0C067
:10059400F8F8F8000000000000000000000000006F
:1005A400000000000000000101010101FFFFFF0045
:1005B4000000000000000000000000000000000037
:1005C4000000000000000000FFFFFF00000000002A
:1005D4000000000000000000000000000000000017
:1005E400000000003F3F3F0000000000000000004A
:1005F400000000000000000080C0E0F0703818180F
:100604001818183870F0E0C08000000000000000E6
:10061400000000000F0F0F00000000000000008029
:10062400C0E0FF7F1F000000000000000000000089
:1006340000C0E0F070381C0C060603030100000043
:1006440000000000000000000000003C3F3F233099
:100654003030303030303030303030303000000026
:10066400000000000000000080C0E0F01838080816
:1006740008083818F0E0C080000000000000000006
:100684000000000007070700000080808080C0C0D1
:10069400F07F3F1F0000000000000000000000E0A9
:1006A400E0E000000000010101010103070FFEFC6E
:1006B400F80000000000000000000001070F1E1CED
:1006C40030382020202038301C1E0F070100000085
:1006D4000000000000000000000000000000000016
:1006E40080E0F0F8F8F800000000000000000000CE
:1006F4000000000000000080E0F07C3E0F0703FFD4
:10070400FFFF00000000000000000000000000E007
:10071400F0FC9FCFC3C1C0C0C0C080FFFFFF80C03A
:10072400C0C0000000000000000000000000000045
:10073400000000000000003F3F3F000000000000F8
:10074400000000000000000000C0F8F81818181895
:1007540018181818181818180000000000000000D5
:1007640000000000F0FFFFE7707030303030707030
:10077400E0C0C00000000000000000000000000015
:100784000101010000000000000000000003FFFF61
:10079400FC00000000000000000000070F1F1C30D8
:1007A40038202020202038181C1F0F0300000000D0
:1007B40000000000000000000080E0F070383818ED
:1007C40018183838F0F0E080000000000000000045
:1007D400000000F0FEFF8FC1C0E06060606060E078
:1007E400C0C383030000000000000000000000FFFD
:1007F400FFFF070100000000000000000103FFFFED
:10080400FC0000000000000000000000030F1F1C9B
:100814003038202020203030181E0F07010000003F
:100824000000000000000000181818181818181804
:1008340018181898C8F8F87818000000000000008C
:100844000000000000000000000000C0F0FC7F1F5A
:10085400070100000000000000000000000000008C
:1008640000000000C0F8FF7F070100000000000046
:100874000000000000000000000000000000003E36
:100884003F3F0700000000000000000000000000DF
:10089400000000000000000080C0E0F0703818186C
:1008A4001818183870F0E0C0800000000000000044
:1008B400000000001F3F7FF0E0C08080808080C087
:1008C400E0F07F3F0F00000000000000000000F097
:1008D400FCFE0F070303010101010303070FFFFEE1
:1008E400FC0000000000000000000001070F1E1CB7
:1008F4003038202020203830181C0F070100000059
:100904000000000000000000C0E0F0703838181843
:100914001818383870F0E080000000000000000073
:100924000000007FFFFF81000000000000000000C5
:1009340000C1DDFFFE000000000000000000000018
:10094400010307070E0C0C0C0C0C0E0607E3FBFF4F
:100954001F0000000000000000000000070F1F1C23
:10096400382020202020381C1E0F07010000000022
:1009740000000000000000008080800000000000F3
:100984000000000000000003070707030000000048
:100994000000000000000080C0C0C0800000000013
:1009A4000000000000000001030303010000000038
:1009B40000000000F894EE27ECBBF1E0FBBFEBBFB6
:1009C400E5BFF8E1F1BDE1BD8DE0A2E0BB27ED9309
:1009D4008A95E9F780E094E0A0E6ED930197E9F7C2
:1009E400E6EBF9E085919591009761F0A591B591B9
:1009F40005901590BF01F00105900D920197E1F764
:100A0400FB01F0CFEFE5EDBFE4E0EEBFC0E6D1E0DF
:100A14005AC1E4EAE6BF9BD1F1F39CD198D1F1F33A
:100A2400E0E09DD194D1F1F3E881F98198D18FD19F
:100A3400F1F3E4E9E6BFEDC0E4EAE6BF88D1F1F3FF
:100A440089D185D1F1F3E0E48AD181D1F1F3E88150
:100A5400F98185D17CD1F1F3E4E9E6BFDAC004D2AF
:100A640020E030E010E0143090F4E12FE0557BD129
:100A74007ED100E0003848F4F9012F5F3F4FAC818C
:100A8400BD8180D1D9DF0F5FF5CF1F5FECCFF3D1EC
:100A9400269608952497E6D140E050E077D1C1D15D
:100AA400E887F98773D1C2D1EE83FF8300E010E0B9
:100AB4000430E0E01E0718F56ED1ABDFEE81FF8154
:100AC40030966FD1E885F98570966BD120E030E0DF
:100AD4002C31E0E03E0780F4EA85FB85A0E7B0E036
:100AE40085D1EA5EFA4FDF01FA014F5F5F4F4AD1C9
:100AF400A3DF2F5F3F4FECCF0F5F1F4FD9CFB9D18B
:100B04002E960895B1D100E010E00430E0E01E0715
:100B140090F441D12CD120E030E02038E0E03E07D1
:100B240038F4E0E0F0E040D187DF2F5F3F4FF5CFAE
:100B34000F5F1F4FEACF9FD124960895EEEAF0E0AD
:100B440030D1E0E2F0E02DD1E0E1F0E02AD1E0EBB9
:100B5400F0E027D1E8ECF0E027D109D1E0E4F0E0BF
:100B640020D1E1E8F0E01DD1EFEFF0E01AD1E1EAA5
:100B7400F0E017D1E6EAF0E014D1E8EAF0E011D1B0
:100B8400EFE1F0E00ED1E4EAF0E00BD1E3EDF0E0C8
:100B940008D1E0E0F0E005D1E5EDF0E002D1E0EFCE
:100BA400F0E0FFD0E9EDF0E0FCD0E2E2F0E0F9D0D3
:100BB400EAEDF0E0F6D0E2E0F0E0F3D0EBEDF0E0C7
:100BC400F0D0E0E2F0E0EDD0EDE8F0E0EAD0E4E1EE
:100BD400F0E0E7D0EFEAF0E0E4D00895E8D026D1E1
:100BE4006F01E5D0E9D0E0936001F0936101A88141
:100BF400B981E4E6F0E0E0D0E0936201F0936301B0
:100C0400A881B981E8EEF3E00CD1E0936401F0939C
:100C1400650122960895EA93FA93EFB7EA93ECE814
:100C2400E2BFF20131962F01E991EFBFF991E99109
:100C340018950A921A92FA926A937A938A939A93DB
:100C4400AA93BA93EA93FA93EFB7EA93062C072888
:100C540071F444245524E1E0E9BFE2E0E3BFECE8A9
:100C6400E2BFE2E0E5BFE1E0F0E03F011EC0E0E00A
:100C7400E9BF66247724E2ECF1E04E165F0628F41F
:100C8400A40CB51CF40131964F01EAE0F0E0E8153C
:100C9400F90549F4F401D501B1D086D09FDF882449
:100CA4009924AA24BB24E3E0E5BFE991EFBFF991BD
:100CB400E991B991A9919991899179916991F99061
:100CC400199009901895EFEFE4BBE1E0E1BBECE08B
:100CD400E0B9E0E0E1B9E0E4EBBFE3E0E5BFE0E880
:100CE400EFBF2CDF6FD0E6E2F0E05ED0B8DEE8EED6
:100CF400F3E05AD06BD006DFE1E0E2BB85E38A95EE
:100D0400F1F7E0E0E2BBE4E5F0E04ED0DA92CA921B
:100D1400C1DEE8E3F0E048D0E0916001F0916101C8
:100D240043D0B8DEECE1F0E03FD0E0916201F09115
:100D340063013AD0AFDEE0E0F0E036D0E091640148
:100D4400F091650131D0A6DE3DD0D6CFFFCFE6B716
:100D5400E0780895E8E7E3B9E4E8E6BF0895E3B985
:100D6400E4E8E6BF0895F0E0FA93EA93089551DECB
:100D7400E0E0F0E0FA93EA934CDEE0E1F0E0FA938D
:100D8400EA9347CEEA0FFB1FE491EDCFAC85BD8516
:100D9400E0E1F0E00895F801E055FF4FFA93EA939B
:100DA4000895FA93EA9335CEFA93EA930895A881C5
:100DB400B981EAE0F0E0089534D0DF01EAE0F0E040
:100DC40035D00895E2E3F0E0EFDF00C0E991F99156
:100DD400309639F080EA9FE00197F1F7A8953197B2
:100DE400C9F70895E095F09531960895FA9FF02D8E
:100DF400EB9FF00DEA9FE02DF10D089500241124DE
:100E040090E1AA0FBB1F001C111C0E1A1F0A18F434
:100E14000E0E1F1E01C0A1609A9599F7FD01D00125
:100E2400089512D0EBDF0EF4DDDF0895E894B7FFE8
:100E340004C0A095B09511966894F7FDD3DFDEDF6A
:100E4400FD010EF4CFDF0895E894F7FF02C0CADF76
:100E54006894B7FF06C0A095B095119600F8039466
:100E640000FA08955A934A933A932A931A930A9349
:100E740008955D814C813B812A81198108810895FF
:00000001FF
